{
  "contractName": "CnGovernor",
  "abi": [
    {
      "inputs": [
        {
          "internalType": "contract IVotes",
          "name": "_token",
          "type": "address"
        }
      ],
      "stateMutability": "nonpayable",
      "type": "constructor"
    },
    {
      "inputs": [],
      "name": "Empty",
      "type": "error"
    },
    {
      "anonymous": false,
      "inputs": [
        {
          "indexed": false,
          "internalType": "uint256",
          "name": "proposalId",
          "type": "uint256"
        }
      ],
      "name": "ProposalCanceled",
      "type": "event"
    },
    {
      "anonymous": false,
      "inputs": [
        {
          "indexed": false,
          "internalType": "uint256",
          "name": "proposalId",
          "type": "uint256"
        },
        {
          "indexed": false,
          "internalType": "address",
          "name": "proposer",
          "type": "address"
        },
        {
          "indexed": false,
          "internalType": "address[]",
          "name": "targets",
          "type": "address[]"
        },
        {
          "indexed": false,
          "internalType": "uint256[]",
          "name": "values",
          "type": "uint256[]"
        },
        {
          "indexed": false,
          "internalType": "string[]",
          "name": "signatures",
          "type": "string[]"
        },
        {
          "indexed": false,
          "internalType": "bytes[]",
          "name": "calldatas",
          "type": "bytes[]"
        },
        {
          "indexed": false,
          "internalType": "uint256",
          "name": "startBlock",
          "type": "uint256"
        },
        {
          "indexed": false,
          "internalType": "uint256",
          "name": "endBlock",
          "type": "uint256"
        },
        {
          "indexed": false,
          "internalType": "string",
          "name": "description",
          "type": "string"
        }
      ],
      "name": "ProposalCreated",
      "type": "event"
    },
    {
      "anonymous": false,
      "inputs": [
        {
          "indexed": false,
          "internalType": "uint256",
          "name": "proposalId",
          "type": "uint256"
        }
      ],
      "name": "ProposalExecuted",
      "type": "event"
    },
    {
      "anonymous": false,
      "inputs": [
        {
          "indexed": false,
          "internalType": "uint256",
          "name": "oldProposalThreshold",
          "type": "uint256"
        },
        {
          "indexed": false,
          "internalType": "uint256",
          "name": "newProposalThreshold",
          "type": "uint256"
        }
      ],
      "name": "ProposalThresholdSet",
      "type": "event"
    },
    {
      "anonymous": false,
      "inputs": [
        {
          "indexed": false,
          "internalType": "uint256",
          "name": "oldQuorumNumerator",
          "type": "uint256"
        },
        {
          "indexed": false,
          "internalType": "uint256",
          "name": "newQuorumNumerator",
          "type": "uint256"
        }
      ],
      "name": "QuorumNumeratorUpdated",
      "type": "event"
    },
    {
      "anonymous": false,
      "inputs": [
        {
          "indexed": true,
          "internalType": "address",
          "name": "voter",
          "type": "address"
        },
        {
          "indexed": false,
          "internalType": "uint256",
          "name": "proposalId",
          "type": "uint256"
        },
        {
          "indexed": false,
          "internalType": "uint8",
          "name": "support",
          "type": "uint8"
        },
        {
          "indexed": false,
          "internalType": "uint256",
          "name": "weight",
          "type": "uint256"
        },
        {
          "indexed": false,
          "internalType": "string",
          "name": "reason",
          "type": "string"
        }
      ],
      "name": "VoteCast",
      "type": "event"
    },
    {
      "anonymous": false,
      "inputs": [
        {
          "indexed": true,
          "internalType": "address",
          "name": "voter",
          "type": "address"
        },
        {
          "indexed": false,
          "internalType": "uint256",
          "name": "proposalId",
          "type": "uint256"
        },
        {
          "indexed": false,
          "internalType": "uint8",
          "name": "support",
          "type": "uint8"
        },
        {
          "indexed": false,
          "internalType": "uint256",
          "name": "weight",
          "type": "uint256"
        },
        {
          "indexed": false,
          "internalType": "string",
          "name": "reason",
          "type": "string"
        },
        {
          "indexed": false,
          "internalType": "bytes",
          "name": "params",
          "type": "bytes"
        }
      ],
      "name": "VoteCastWithParams",
      "type": "event"
    },
    {
      "anonymous": false,
      "inputs": [
        {
          "indexed": false,
          "internalType": "uint256",
          "name": "oldVotingDelay",
          "type": "uint256"
        },
        {
          "indexed": false,
          "internalType": "uint256",
          "name": "newVotingDelay",
          "type": "uint256"
        }
      ],
      "name": "VotingDelaySet",
      "type": "event"
    },
    {
      "anonymous": false,
      "inputs": [
        {
          "indexed": false,
          "internalType": "uint256",
          "name": "oldVotingPeriod",
          "type": "uint256"
        },
        {
          "indexed": false,
          "internalType": "uint256",
          "name": "newVotingPeriod",
          "type": "uint256"
        }
      ],
      "name": "VotingPeriodSet",
      "type": "event"
    },
    {
      "inputs": [],
      "name": "BALLOT_TYPEHASH",
      "outputs": [
        {
          "internalType": "bytes32",
          "name": "",
          "type": "bytes32"
        }
      ],
      "stateMutability": "view",
      "type": "function",
      "constant": true
    },
    {
      "inputs": [],
      "name": "COUNTING_MODE",
      "outputs": [
        {
          "internalType": "string",
          "name": "",
          "type": "string"
        }
      ],
      "stateMutability": "pure",
      "type": "function",
      "constant": true
    },
    {
      "inputs": [],
      "name": "EXTENDED_BALLOT_TYPEHASH",
      "outputs": [
        {
          "internalType": "bytes32",
          "name": "",
          "type": "bytes32"
        }
      ],
      "stateMutability": "view",
      "type": "function",
      "constant": true
    },
    {
      "inputs": [
        {
          "internalType": "uint256",
          "name": "proposalId",
          "type": "uint256"
        },
        {
          "internalType": "uint8",
          "name": "support",
          "type": "uint8"
        }
      ],
      "name": "castVote",
      "outputs": [
        {
          "internalType": "uint256",
          "name": "",
          "type": "uint256"
        }
      ],
      "stateMutability": "nonpayable",
      "type": "function"
    },
    {
      "inputs": [
        {
          "internalType": "uint256",
          "name": "proposalId",
          "type": "uint256"
        },
        {
          "internalType": "uint8",
          "name": "support",
          "type": "uint8"
        },
        {
          "internalType": "uint8",
          "name": "v",
          "type": "uint8"
        },
        {
          "internalType": "bytes32",
          "name": "r",
          "type": "bytes32"
        },
        {
          "internalType": "bytes32",
          "name": "s",
          "type": "bytes32"
        }
      ],
      "name": "castVoteBySig",
      "outputs": [
        {
          "internalType": "uint256",
          "name": "",
          "type": "uint256"
        }
      ],
      "stateMutability": "nonpayable",
      "type": "function"
    },
    {
      "inputs": [
        {
          "internalType": "uint256",
          "name": "proposalId",
          "type": "uint256"
        },
        {
          "internalType": "uint8",
          "name": "support",
          "type": "uint8"
        },
        {
          "internalType": "string",
          "name": "reason",
          "type": "string"
        }
      ],
      "name": "castVoteWithReason",
      "outputs": [
        {
          "internalType": "uint256",
          "name": "",
          "type": "uint256"
        }
      ],
      "stateMutability": "nonpayable",
      "type": "function"
    },
    {
      "inputs": [
        {
          "internalType": "uint256",
          "name": "proposalId",
          "type": "uint256"
        },
        {
          "internalType": "uint8",
          "name": "support",
          "type": "uint8"
        },
        {
          "internalType": "string",
          "name": "reason",
          "type": "string"
        },
        {
          "internalType": "bytes",
          "name": "params",
          "type": "bytes"
        }
      ],
      "name": "castVoteWithReasonAndParams",
      "outputs": [
        {
          "internalType": "uint256",
          "name": "",
          "type": "uint256"
        }
      ],
      "stateMutability": "nonpayable",
      "type": "function"
    },
    {
      "inputs": [
        {
          "internalType": "uint256",
          "name": "proposalId",
          "type": "uint256"
        },
        {
          "internalType": "uint8",
          "name": "support",
          "type": "uint8"
        },
        {
          "internalType": "string",
          "name": "reason",
          "type": "string"
        },
        {
          "internalType": "bytes",
          "name": "params",
          "type": "bytes"
        },
        {
          "internalType": "uint8",
          "name": "v",
          "type": "uint8"
        },
        {
          "internalType": "bytes32",
          "name": "r",
          "type": "bytes32"
        },
        {
          "internalType": "bytes32",
          "name": "s",
          "type": "bytes32"
        }
      ],
      "name": "castVoteWithReasonAndParamsBySig",
      "outputs": [
        {
          "internalType": "uint256",
          "name": "",
          "type": "uint256"
        }
      ],
      "stateMutability": "nonpayable",
      "type": "function"
    },
    {
      "inputs": [
        {
          "internalType": "address[]",
          "name": "targets",
          "type": "address[]"
        },
        {
          "internalType": "uint256[]",
          "name": "values",
          "type": "uint256[]"
        },
        {
          "internalType": "bytes[]",
          "name": "calldatas",
          "type": "bytes[]"
        },
        {
          "internalType": "bytes32",
          "name": "descriptionHash",
          "type": "bytes32"
        }
      ],
      "name": "execute",
      "outputs": [
        {
          "internalType": "uint256",
          "name": "",
          "type": "uint256"
        }
      ],
      "stateMutability": "payable",
      "type": "function",
      "payable": true
    },
    {
      "inputs": [
        {
          "internalType": "address",
          "name": "account",
          "type": "address"
        },
        {
          "internalType": "uint256",
          "name": "blockNumber",
          "type": "uint256"
        }
      ],
      "name": "getVotes",
      "outputs": [
        {
          "internalType": "uint256",
          "name": "",
          "type": "uint256"
        }
      ],
      "stateMutability": "view",
      "type": "function",
      "constant": true
    },
    {
      "inputs": [
        {
          "internalType": "address",
          "name": "account",
          "type": "address"
        },
        {
          "internalType": "uint256",
          "name": "blockNumber",
          "type": "uint256"
        },
        {
          "internalType": "bytes",
          "name": "params",
          "type": "bytes"
        }
      ],
      "name": "getVotesWithParams",
      "outputs": [
        {
          "internalType": "uint256",
          "name": "",
          "type": "uint256"
        }
      ],
      "stateMutability": "view",
      "type": "function",
      "constant": true
    },
    {
      "inputs": [
        {
          "internalType": "uint256",
          "name": "proposalId",
          "type": "uint256"
        },
        {
          "internalType": "address",
          "name": "account",
          "type": "address"
        }
      ],
      "name": "hasVoted",
      "outputs": [
        {
          "internalType": "bool",
          "name": "",
          "type": "bool"
        }
      ],
      "stateMutability": "view",
      "type": "function",
      "constant": true
    },
    {
      "inputs": [
        {
          "internalType": "address[]",
          "name": "targets",
          "type": "address[]"
        },
        {
          "internalType": "uint256[]",
          "name": "values",
          "type": "uint256[]"
        },
        {
          "internalType": "bytes[]",
          "name": "calldatas",
          "type": "bytes[]"
        },
        {
          "internalType": "bytes32",
          "name": "descriptionHash",
          "type": "bytes32"
        }
      ],
      "name": "hashProposal",
      "outputs": [
        {
          "internalType": "uint256",
          "name": "",
          "type": "uint256"
        }
      ],
      "stateMutability": "pure",
      "type": "function",
      "constant": true
    },
    {
      "inputs": [],
      "name": "name",
      "outputs": [
        {
          "internalType": "string",
          "name": "",
          "type": "string"
        }
      ],
      "stateMutability": "view",
      "type": "function",
      "constant": true
    },
    {
      "inputs": [
        {
          "internalType": "address",
          "name": "",
          "type": "address"
        },
        {
          "internalType": "address",
          "name": "",
          "type": "address"
        },
        {
          "internalType": "uint256[]",
          "name": "",
          "type": "uint256[]"
        },
        {
          "internalType": "uint256[]",
          "name": "",
          "type": "uint256[]"
        },
        {
          "internalType": "bytes",
          "name": "",
          "type": "bytes"
        }
      ],
      "name": "onERC1155BatchReceived",
      "outputs": [
        {
          "internalType": "bytes4",
          "name": "",
          "type": "bytes4"
        }
      ],
      "stateMutability": "nonpayable",
      "type": "function"
    },
    {
      "inputs": [
        {
          "internalType": "address",
          "name": "",
          "type": "address"
        },
        {
          "internalType": "address",
          "name": "",
          "type": "address"
        },
        {
          "internalType": "uint256",
          "name": "",
          "type": "uint256"
        },
        {
          "internalType": "uint256",
          "name": "",
          "type": "uint256"
        },
        {
          "internalType": "bytes",
          "name": "",
          "type": "bytes"
        }
      ],
      "name": "onERC1155Received",
      "outputs": [
        {
          "internalType": "bytes4",
          "name": "",
          "type": "bytes4"
        }
      ],
      "stateMutability": "nonpayable",
      "type": "function"
    },
    {
      "inputs": [
        {
          "internalType": "address",
          "name": "",
          "type": "address"
        },
        {
          "internalType": "address",
          "name": "",
          "type": "address"
        },
        {
          "internalType": "uint256",
          "name": "",
          "type": "uint256"
        },
        {
          "internalType": "bytes",
          "name": "",
          "type": "bytes"
        }
      ],
      "name": "onERC721Received",
      "outputs": [
        {
          "internalType": "bytes4",
          "name": "",
          "type": "bytes4"
        }
      ],
      "stateMutability": "nonpayable",
      "type": "function"
    },
    {
      "inputs": [
        {
          "internalType": "uint256",
          "name": "proposalId",
          "type": "uint256"
        }
      ],
      "name": "proposalDeadline",
      "outputs": [
        {
          "internalType": "uint256",
          "name": "",
          "type": "uint256"
        }
      ],
      "stateMutability": "view",
      "type": "function",
      "constant": true
    },
    {
      "inputs": [
        {
          "internalType": "uint256",
          "name": "proposalId",
          "type": "uint256"
        }
      ],
      "name": "proposalSnapshot",
      "outputs": [
        {
          "internalType": "uint256",
          "name": "",
          "type": "uint256"
        }
      ],
      "stateMutability": "view",
      "type": "function",
      "constant": true
    },
    {
      "inputs": [
        {
          "internalType": "uint256",
          "name": "proposalId",
          "type": "uint256"
        }
      ],
      "name": "proposalVotes",
      "outputs": [
        {
          "internalType": "uint256",
          "name": "againstVotes",
          "type": "uint256"
        },
        {
          "internalType": "uint256",
          "name": "forVotes",
          "type": "uint256"
        },
        {
          "internalType": "uint256",
          "name": "abstainVotes",
          "type": "uint256"
        }
      ],
      "stateMutability": "view",
      "type": "function",
      "constant": true
    },
    {
      "inputs": [
        {
          "internalType": "address[]",
          "name": "targets",
          "type": "address[]"
        },
        {
          "internalType": "uint256[]",
          "name": "values",
          "type": "uint256[]"
        },
        {
          "internalType": "bytes[]",
          "name": "calldatas",
          "type": "bytes[]"
        },
        {
          "internalType": "string",
          "name": "description",
          "type": "string"
        }
      ],
      "name": "propose",
      "outputs": [
        {
          "internalType": "uint256",
          "name": "",
          "type": "uint256"
        }
      ],
      "stateMutability": "nonpayable",
      "type": "function"
    },
    {
      "inputs": [],
      "name": "quorumDenominator",
      "outputs": [
        {
          "internalType": "uint256",
          "name": "",
          "type": "uint256"
        }
      ],
      "stateMutability": "view",
      "type": "function",
      "constant": true
    },
    {
      "inputs": [
        {
          "internalType": "uint256",
          "name": "blockNumber",
          "type": "uint256"
        }
      ],
      "name": "quorumNumerator",
      "outputs": [
        {
          "internalType": "uint256",
          "name": "",
          "type": "uint256"
        }
      ],
      "stateMutability": "view",
      "type": "function",
      "constant": true
    },
    {
      "inputs": [],
      "name": "quorumNumerator",
      "outputs": [
        {
          "internalType": "uint256",
          "name": "",
          "type": "uint256"
        }
      ],
      "stateMutability": "view",
      "type": "function",
      "constant": true
    },
    {
      "inputs": [
        {
          "internalType": "address",
          "name": "target",
          "type": "address"
        },
        {
          "internalType": "uint256",
          "name": "value",
          "type": "uint256"
        },
        {
          "internalType": "bytes",
          "name": "data",
          "type": "bytes"
        }
      ],
      "name": "relay",
      "outputs": [],
      "stateMutability": "payable",
      "type": "function",
      "payable": true
    },
    {
      "inputs": [
        {
          "internalType": "uint256",
          "name": "newProposalThreshold",
          "type": "uint256"
        }
      ],
      "name": "setProposalThreshold",
      "outputs": [],
      "stateMutability": "nonpayable",
      "type": "function"
    },
    {
      "inputs": [
        {
          "internalType": "uint256",
          "name": "newVotingDelay",
          "type": "uint256"
        }
      ],
      "name": "setVotingDelay",
      "outputs": [],
      "stateMutability": "nonpayable",
      "type": "function"
    },
    {
      "inputs": [
        {
          "internalType": "uint256",
          "name": "newVotingPeriod",
          "type": "uint256"
        }
      ],
      "name": "setVotingPeriod",
      "outputs": [],
      "stateMutability": "nonpayable",
      "type": "function"
    },
    {
      "inputs": [
        {
          "internalType": "uint256",
          "name": "proposalId",
          "type": "uint256"
        }
      ],
      "name": "state",
      "outputs": [
        {
          "internalType": "enum IGovernor.ProposalState",
          "name": "",
          "type": "uint8"
        }
      ],
      "stateMutability": "view",
      "type": "function",
      "constant": true
    },
    {
      "inputs": [
        {
          "internalType": "bytes4",
          "name": "interfaceId",
          "type": "bytes4"
        }
      ],
      "name": "supportsInterface",
      "outputs": [
        {
          "internalType": "bool",
          "name": "",
          "type": "bool"
        }
      ],
      "stateMutability": "view",
      "type": "function",
      "constant": true
    },
    {
      "inputs": [],
      "name": "token",
      "outputs": [
        {
          "internalType": "contract IVotes",
          "name": "",
          "type": "address"
        }
      ],
      "stateMutability": "view",
      "type": "function",
      "constant": true
    },
    {
      "inputs": [
        {
          "internalType": "uint256",
          "name": "newQuorumNumerator",
          "type": "uint256"
        }
      ],
      "name": "updateQuorumNumerator",
      "outputs": [],
      "stateMutability": "nonpayable",
      "type": "function"
    },
    {
      "inputs": [],
      "name": "version",
      "outputs": [
        {
          "internalType": "string",
          "name": "",
          "type": "string"
        }
      ],
      "stateMutability": "view",
      "type": "function",
      "constant": true
    },
    {
      "stateMutability": "payable",
      "type": "receive",
      "payable": true
    },
    {
      "inputs": [],
      "name": "votingDelay",
      "outputs": [
        {
          "internalType": "uint256",
          "name": "",
          "type": "uint256"
        }
      ],
      "stateMutability": "view",
      "type": "function",
      "constant": true
    },
    {
      "inputs": [],
      "name": "votingPeriod",
      "outputs": [
        {
          "internalType": "uint256",
          "name": "",
          "type": "uint256"
        }
      ],
      "stateMutability": "view",
      "type": "function",
      "constant": true
    },
    {
      "inputs": [
        {
          "internalType": "uint256",
          "name": "blockNumber",
          "type": "uint256"
        }
      ],
      "name": "quorum",
      "outputs": [
        {
          "internalType": "uint256",
          "name": "",
          "type": "uint256"
        }
      ],
      "stateMutability": "view",
      "type": "function",
      "constant": true
    },
    {
      "inputs": [],
      "name": "proposalThreshold",
      "outputs": [
        {
          "internalType": "uint256",
          "name": "",
          "type": "uint256"
        }
      ],
      "stateMutability": "view",
      "type": "function",
      "constant": true
    }
  ],
  "bytecode": "0x6101606040523480156200001257600080fd5b50604051620072c0380380620072c0833981810160405281019062000038919062000ba3565b600481600161c4e060006040518060400160405280600a81526020017f436e476f7665726e6f72000000000000000000000000000000000000000000008152508062000089620001d360201b60201c565b60008280519060200120905060008280519060200120905060007f8b73c3c69bb8fe3d512ecc4cf759cc79239f7b179b0ffacaa9a75d522b39400f90508260e081815250508161010081815250504660a08181525050620000f28184846200021060201b60201c565b608081815250503073ffffffffffffffffffffffffffffffffffffffff1660c08173ffffffffffffffffffffffffffffffffffffffff1681525050806101208181525050505050505080600090816200014c919062000e4f565b50506200015f836200024c60201b60201c565b62000170826200029360201b60201c565b62000181816200032060201b60201c565b5050508073ffffffffffffffffffffffffffffffffffffffff166101408173ffffffffffffffffffffffffffffffffffffffff168152505050620001cb816200036760201b60201c565b505062001370565b60606040518060400160405280600181526020017f3100000000000000000000000000000000000000000000000000000000000000815250905090565b600083838346306040516020016200022d95949392919062000f73565b6040516020818303038152906040528051906020012090509392505050565b7fc565b045403dc03c2eea82b81a0465edad9e2e7fc4d97e11421c209da93d7a93600454826040516200028192919062000fd0565b60405180910390a18060048190555050565b60008111620002d9576040517f08c379a0000000000000000000000000000000000000000000000000000000008152600401620002d09062001084565b60405180910390fd5b7f7e3f7f0708a84de9203036abaa450dccc85ad5ff52f78c170f3edb55cf5e8828600554826040516200030e92919062000fd0565b60405180910390a18060058190555050565b7fccb45da8d5717e6c4544694297c4ba5cf151d455c9bb0ed4fc7a38411bc05461600654826040516200035592919062000fd0565b60405180910390a18060068190555050565b620003776200054660201b60201c565b811115620003bc576040517f08c379a0000000000000000000000000000000000000000000000000000000008152600401620003b39062001142565b60405180910390fd5b6000620003ce6200054f60201b60201c565b905060008114158015620003ea57506000600960000180549050145b15620004ea5760096000016040518060400160405280600063ffffffff1681526020016200042384620005a560201b62001e221760201c565b7bffffffffffffffffffffffffffffffffffffffffffffffffffffffff168152509080600181540180825580915050600190039060005260206000200160009091909190915060008201518160000160006101000a81548163ffffffff021916908363ffffffff16021790555060208201518160000160046101000a8154817bffffffffffffffffffffffffffffffffffffffffffffffffffffffff02191690837bffffffffffffffffffffffffffffffffffffffffffffffffffffffff16021790555050505b620005058260096200061360201b62001e8d1790919060201c565b50507f0553476bf02ef2726e8ce5ced78d63e26e602e4a2257b1f559418e24b463399781836040516200053a92919062000fd0565b60405180910390a15050565b60006064905090565b600080600960000180549050146200059c57620005786009620006a360201b62001efb1760201c565b7bffffffffffffffffffffffffffffffffffffffffffffffffffffffff16620005a0565b6008545b905090565b60007bffffffffffffffffffffffffffffffffffffffffffffffffffffffff80168211156200060b576040517f08c379a00000000000000000000000000000000000000000000000000000000081526004016200060290620011da565b60405180910390fd5b819050919050565b600080620006568460000162000634436200071960201b62001f651760201c565b6200064a86620005a560201b62001e221760201c565b6200076f60201b60201c565b817bffffffffffffffffffffffffffffffffffffffffffffffffffffffff169150807bffffffffffffffffffffffffffffffffffffffffffffffffffffffff169050915091509250929050565b60008082600001805490509050600081146200070e57620006dc83600001600183620006d091906200122b565b62000b1060201b60201c565b60000160049054906101000a90047bffffffffffffffffffffffffffffffffffffffffffffffffffffffff1662000711565b60005b915050919050565b600063ffffffff801682111562000767576040517f08c379a00000000000000000000000000000000000000000000000000000000081526004016200075e90620012dc565b60405180910390fd5b819050919050565b600080600085805490509050600081111562000a20576000620007a7876001846200079b91906200122b565b62000b1060201b60201c565b6040518060400160405290816000820160009054906101000a900463ffffffff1663ffffffff1663ffffffff1681526020016000820160049054906101000a90047bffffffffffffffffffffffffffffffffffffffffffffffffffffffff167bffffffffffffffffffffffffffffffffffffffffffffffffffffffff167bffffffffffffffffffffffffffffffffffffffffffffffffffffffff168152505090508563ffffffff16816000015163ffffffff1611156200089e576040517f08c379a000000000000000000000000000000000000000000000000000000000815260040162000895906200134e565b60405180910390fd5b8563ffffffff16816000015163ffffffff16036200092e5784620008d788600185620008cb91906200122b565b62000b1060201b60201c565b60000160046101000a8154817bffffffffffffffffffffffffffffffffffffffffffffffffffffffff02191690837bffffffffffffffffffffffffffffffffffffffffffffffffffffffff16021790555062000a0e565b8660405180604001604052808863ffffffff168152602001877bffffffffffffffffffffffffffffffffffffffffffffffffffffffff168152509080600181540180825580915050600190039060005260206000200160009091909190915060008201518160000160006101000a81548163ffffffff021916908363ffffffff16021790555060208201518160000160046101000a8154817bffffffffffffffffffffffffffffffffffffffffffffffffffffffff02191690837bffffffffffffffffffffffffffffffffffffffffffffffffffffffff16021790555050505b80602001518593509350505062000b08565b8560405180604001604052808763ffffffff168152602001867bffffffffffffffffffffffffffffffffffffffffffffffffffffffff168152509080600181540180825580915050600190039060005260206000200160009091909190915060008201518160000160006101000a81548163ffffffff021916908363ffffffff16021790555060208201518160000160046101000a8154817bffffffffffffffffffffffffffffffffffffffffffffffffffffffff02191690837bffffffffffffffffffffffffffffffffffffffffffffffffffffffff160217905550505060008492509250505b935093915050565b60008260005281602060002001905092915050565b600080fd5b600073ffffffffffffffffffffffffffffffffffffffff82169050919050565b600062000b578262000b2a565b9050919050565b600062000b6b8262000b4a565b9050919050565b62000b7d8162000b5e565b811462000b8957600080fd5b50565b60008151905062000b9d8162000b72565b92915050565b60006020828403121562000bbc5762000bbb62000b25565b5b600062000bcc8482850162000b8c565b91505092915050565b600081519050919050565b7f4e487b7100000000000000000000000000000000000000000000000000000000600052604160045260246000fd5b7f4e487b7100000000000000000000000000000000000000000000000000000000600052602260045260246000fd5b6000600282049050600182168062000c5757607f821691505b60208210810362000c6d5762000c6c62000c0f565b5b50919050565b60008190508160005260206000209050919050565b60006020601f8301049050919050565b600082821b905092915050565b60006008830262000cd77fffffffffffffffffffffffffffffffffffffffffffffffffffffffffffffffff8262000c98565b62000ce3868362000c98565b95508019841693508086168417925050509392505050565b6000819050919050565b6000819050919050565b600062000d3062000d2a62000d248462000cfb565b62000d05565b62000cfb565b9050919050565b6000819050919050565b62000d4c8362000d0f565b62000d6462000d5b8262000d37565b84845462000ca5565b825550505050565b600090565b62000d7b62000d6c565b62000d8881848462000d41565b505050565b5b8181101562000db05762000da460008262000d71565b60018101905062000d8e565b5050565b601f82111562000dff5762000dc98162000c73565b62000dd48462000c88565b8101602085101562000de4578190505b62000dfc62000df38562000c88565b83018262000d8d565b50505b505050565b600082821c905092915050565b600062000e246000198460080262000e04565b1980831691505092915050565b600062000e3f838362000e11565b9150826002028217905092915050565b62000e5a8262000bd5565b67ffffffffffffffff81111562000e765762000e7562000be0565b5b62000e82825462000c3e565b62000e8f82828562000db4565b600060209050601f83116001811462000ec7576000841562000eb2578287015190505b62000ebe858262000e31565b86555062000f2e565b601f19841662000ed78662000c73565b60005b8281101562000f015784890151825560018201915060208501945060208101905062000eda565b8683101562000f21578489015162000f1d601f89168262000e11565b8355505b6001600288020188555050505b505050505050565b6000819050919050565b62000f4b8162000f36565b82525050565b62000f5c8162000cfb565b82525050565b62000f6d8162000b4a565b82525050565b600060a08201905062000f8a600083018862000f40565b62000f99602083018762000f40565b62000fa8604083018662000f40565b62000fb7606083018562000f51565b62000fc6608083018462000f62565b9695505050505050565b600060408201905062000fe7600083018562000f51565b62000ff6602083018462000f51565b9392505050565b600082825260208201905092915050565b7f476f7665726e6f7253657474696e67733a20766f74696e6720706572696f642060008201527f746f6f206c6f7700000000000000000000000000000000000000000000000000602082015250565b60006200106c60278362000ffd565b915062001079826200100e565b604082019050919050565b600060208201905081810360008301526200109f816200105d565b9050919050565b7f476f7665726e6f72566f74657351756f72756d4672616374696f6e3a2071756f60008201527f72756d4e756d657261746f72206f7665722071756f72756d44656e6f6d696e6160208201527f746f720000000000000000000000000000000000000000000000000000000000604082015250565b60006200112a60438362000ffd565b91506200113782620010a6565b606082019050919050565b600060208201905081810360008301526200115d816200111b565b9050919050565b7f53616665436173743a2076616c756520646f65736e27742066697420696e203260008201527f3234206269747300000000000000000000000000000000000000000000000000602082015250565b6000620011c260278362000ffd565b9150620011cf8262001164565b604082019050919050565b60006020820190508181036000830152620011f581620011b3565b9050919050565b7f4e487b7100000000000000000000000000000000000000000000000000000000600052601160045260246000fd5b6000620012388262000cfb565b9150620012458362000cfb565b925082820390508181111562001260576200125f620011fc565b5b92915050565b7f53616665436173743a2076616c756520646f65736e27742066697420696e203360008201527f3220626974730000000000000000000000000000000000000000000000000000602082015250565b6000620012c460268362000ffd565b9150620012d18262001266565b604082019050919050565b60006020820190508181036000830152620012f781620012b5565b9050919050565b7f436865636b706f696e743a20696e76616c6964206b6579000000000000000000600082015250565b60006200133660178362000ffd565b91506200134382620012fe565b602082019050919050565b60006020820190508181036000830152620013698162001327565b9050919050565b60805160a05160c05160e051610100516101205161014051615ee7620013d960003960008181611e00015281816129a10152612b6901526000613065015260006130a70152600061308601526000612fbb015260006130110152600061303a0152615ee76000f3fe60806040526004361061021e5760003560e01c806370b0f66011610123578063c28bc2fa116100ab578063eb9019d41161006f578063eb9019d4146108ed578063ece40cc11461092a578063f23a6e6114610953578063f8ce560a14610990578063fc0c546a146109cd57610264565b8063c28bc2fa14610815578063c59057e414610831578063dd4e2ba51461086e578063deaaa7cc14610899578063ea0217cf146108c457610264565b80639a802a6d116100f25780639a802a6d14610708578063a7713a7014610745578063b58131b014610770578063bc197c811461079b578063c01f9e37146107d857610264565b806370b0f6601461063a5780637b3c71d3146106635780637d5e81e2146106a057806397c3d334146106dd57610264565b80633932abb1116101a6578063544ffc9c11610175578063544ffc9c1461051957806354fd4d501461055857806356781388146105835780635f398a14146105c057806360c4247f146105fd57610264565b80633932abb1146104375780633bccf4fd146104625780633e4f49e61461049f57806343859632146104dc57610264565b806306fdde03116101ed57806306fdde0314610337578063150b7a02146103625780632656227d1461039f5780632d63f693146103cf5780632fe3e2611461040c57610264565b806301ffc9a71461026957806302a251a3146102a657806303420181146102d157806306f3f9e61461030e57610264565b36610264573073ffffffffffffffffffffffffffffffffffffffff166102426109f8565b73ffffffffffffffffffffffffffffffffffffffff161461026257600080fd5b005b600080fd5b34801561027557600080fd5b50610290600480360381019061028b9190613811565b610a00565b60405161029d9190613859565b60405180910390f35b3480156102b257600080fd5b506102bb610b65565b6040516102c8919061388d565b60405180910390f35b3480156102dd57600080fd5b506102f860048036038101906102f39190613ae9565b610b74565b604051610305919061388d565b60405180910390f35b34801561031a57600080fd5b5061033560048036038101906103309190613bc7565b610c59565b005b34801561034357600080fd5b5061034c610d50565b6040516103599190613c73565b60405180910390f35b34801561036e57600080fd5b5061038960048036038101906103849190613cf3565b610de2565b6040516103969190613d85565b60405180910390f35b6103b960048036038101906103b49190614007565b610df6565b6040516103c6919061388d565b60405180910390f35b3480156103db57600080fd5b506103f660048036038101906103f19190613bc7565b610f43565b604051610403919061388d565b60405180910390f35b34801561041857600080fd5b50610421610fb1565b60405161042e91906140d1565b60405180910390f35b34801561044357600080fd5b5061044c610fd5565b604051610459919061388d565b60405180910390f35b34801561046e57600080fd5b50610489600480360381019061048491906140ec565b610fe4565b604051610496919061388d565b60405180910390f35b3480156104ab57600080fd5b506104c660048036038101906104c19190613bc7565b61106e565b6040516104d391906141de565b60405180910390f35b3480156104e857600080fd5b5061050360048036038101906104fe91906141f9565b611182565b6040516105109190613859565b60405180910390f35b34801561052557600080fd5b50610540600480360381019061053b9190613bc7565b6111ed565b60405161054f93929190614239565b60405180910390f35b34801561056457600080fd5b5061056d611225565b60405161057a9190613c73565b60405180910390f35b34801561058f57600080fd5b506105aa60048036038101906105a59190614270565b611262565b6040516105b7919061388d565b60405180910390f35b3480156105cc57600080fd5b506105e760048036038101906105e291906142b0565b611293565b6040516105f4919061388d565b60405180910390f35b34801561060957600080fd5b50610624600480360381019061061f9190613bc7565b6112fd565b604051610631919061388d565b60405180910390f35b34801561064657600080fd5b50610661600480360381019061065c9190613bc7565b611449565b005b34801561066f57600080fd5b5061068a60048036038101906106859190614354565b611540565b604051610697919061388d565b60405180910390f35b3480156106ac57600080fd5b506106c760048036038101906106c29190614469565b6115a8565b6040516106d4919061388d565b60405180910390f35b3480156106e957600080fd5b506106f26118af565b6040516106ff919061388d565b60405180910390f35b34801561071457600080fd5b5061072f600480360381019061072a9190614540565b6118b8565b60405161073c919061388d565b60405180910390f35b34801561075157600080fd5b5061075a6118ce565b604051610767919061388d565b60405180910390f35b34801561077c57600080fd5b50610785611915565b604051610792919061388d565b60405180910390f35b3480156107a757600080fd5b506107c260048036038101906107bd91906145af565b611924565b6040516107cf9190613d85565b60405180910390f35b3480156107e457600080fd5b506107ff60048036038101906107fa9190613bc7565b611939565b60405161080c919061388d565b60405180910390f35b61082f600480360381019061082a91906146d4565b6119a7565b005b34801561083d57600080fd5b5061085860048036038101906108539190614007565b611b30565b604051610865919061388d565b60405180910390f35b34801561087a57600080fd5b50610883611b6c565b6040516108909190613c73565b60405180910390f35b3480156108a557600080fd5b506108ae611ba9565b6040516108bb91906140d1565b60405180910390f35b3480156108d057600080fd5b506108eb60048036038101906108e69190613bc7565b611bcd565b005b3480156108f957600080fd5b50610914600480360381019061090f9190614748565b611cc4565b604051610921919061388d565b60405180910390f35b34801561093657600080fd5b50610951600480360381019061094c9190613bc7565b611ce0565b005b34801561095f57600080fd5b5061097a60048036038101906109759190614788565b611dd7565b6040516109879190613d85565b60405180910390f35b34801561099c57600080fd5b506109b760048036038101906109b29190613bc7565b611dec565b6040516109c4919061388d565b60405180910390f35b3480156109d957600080fd5b506109e2611dfe565b6040516109ef919061487e565b60405180910390f35b600030905090565b6000639a802a6d60e01b630342018160e01b635f398a1460e01b7f79dd796f000000000000000000000000000000000000000000000000000000001818187bffffffffffffffffffffffffffffffffffffffffffffffffffffffff1916827bffffffffffffffffffffffffffffffffffffffffffffffffffffffff19161480610ae657507f79dd796f000000000000000000000000000000000000000000000000000000007bffffffffffffffffffffffffffffffffffffffffffffffffffffffff1916827bffffffffffffffffffffffffffffffffffffffffffffffffffffffff1916145b80610b4e57507f4e2312e0000000000000000000000000000000000000000000000000000000007bffffffffffffffffffffffffffffffffffffffffffffffffffffffff1916827bffffffffffffffffffffffffffffffffffffffffffffffffffffffff1916145b80610b5e5750610b5d82611fb8565b5b9050919050565b6000610b6f612022565b905090565b600080610bf7610bef7fb3b3f3b703cd84ce352197dcff232b1b5d3cfb2025ce47cf04742d0651f1af888c8c8c8c604051610bb09291906148c9565b60405180910390208b80519060200120604051602001610bd49594939291906148f1565b6040516020818303038152906040528051906020012061202c565b868686612046565b9050610c4a8a828b8b8b8080601f016020809104026020016040519081016040528093929190818152602001838380828437600081840152601f19601f820116905080830192505050505050508a612071565b91505098975050505050505050565b610c616109f8565b73ffffffffffffffffffffffffffffffffffffffff16610c7f61222d565b73ffffffffffffffffffffffffffffffffffffffff1614610cd5576040517f08c379a0000000000000000000000000000000000000000000000000000000008152600401610ccc90614990565b60405180910390fd5b3073ffffffffffffffffffffffffffffffffffffffff16610cf46109f8565b73ffffffffffffffffffffffffffffffffffffffff1614610d44576000610d19612235565b604051610d279291906148c9565b604051809103902090505b80610d3d6002612242565b03610d3257505b610d4d8161231e565b50565b606060008054610d5f906149df565b80601f0160208091040260200160405190810160405280929190818152602001828054610d8b906149df565b8015610dd85780601f10610dad57610100808354040283529160200191610dd8565b820191906000526020600020905b815481529060010190602001808311610dbb57829003601f168201915b5050505050905090565b600063150b7a0260e01b9050949350505050565b600080610e0586868686611b30565b90506000610e128261106e565b905060046007811115610e2857610e27614167565b5b816007811115610e3b57610e3a614167565b5b1480610e6b575060056007811115610e5657610e55614167565b5b816007811115610e6957610e68614167565b5b145b610eaa576040517f08c379a0000000000000000000000000000000000000000000000000000000008152600401610ea190614a82565b60405180910390fd5b600180600084815260200190815260200160002060020160006101000a81548160ff0219169083151502179055507f712ae1383f79ac853f8d882153778e0260ef8f03b504e2866e0593e04d2b291f82604051610f07919061388d565b60405180910390a1610f1c82888888886124d2565b610f2982888888886125b5565b610f3682888888886126c4565b8192505050949350505050565b6000610fa0600160008481526020019081526020016000206000016040518060200160405290816000820160009054906101000a900467ffffffffffffffff1667ffffffffffffffff1667ffffffffffffffff168152505061271f565b67ffffffffffffffff169050919050565b7fb3b3f3b703cd84ce352197dcff232b1b5d3cfb2025ce47cf04742d0651f1af8881565b6000610fdf61272d565b905090565b60008061104561103d7f150214d74d59b7d1e90c73fc22ef3d991dd0a76b046543d4d80ab92d2a50328f898960405160200161102293929190614aa2565b6040516020818303038152906040528051906020012061202c565b868686612046565b905061106287828860405180602001604052806000815250612737565b91505095945050505050565b6000806001600084815260200190815260200160002090508060020160009054906101000a900460ff16156110a757600791505061117d565b8060020160019054906101000a900460ff16156110c857600291505061117d565b60006110d384610f43565b905060008103611118576040517f08c379a000000000000000000000000000000000000000000000000000000000815260040161110f90614b25565b60405180910390fd5b43811061112a5760009250505061117d565b600061113585611939565b905043811061114a576001935050505061117d565b61115385612757565b801561116457506111638561279e565b5b15611175576004935050505061117d565b600393505050505b919050565b60006007600084815260200190815260200160002060030160008373ffffffffffffffffffffffffffffffffffffffff1673ffffffffffffffffffffffffffffffffffffffff16815260200190815260200160002060009054906101000a900460ff16905092915050565b600080600080600760008681526020019081526020016000209050806000015481600101548260020154935093509350509193909250565b60606040518060400160405280600181526020017f3100000000000000000000000000000000000000000000000000000000000000815250905090565b60008061126d61222d565b905061128a84828560405180602001604052806000815250612737565b91505092915050565b60008061129e61222d565b90506112f187828888888080601f016020809104026020016040519081016040528093929190818152602001838380828437600081840152601f19601f8201169050808301925050505050505087612071565b91505095945050505050565b60008060096000018054905090506000810361131e57600854915050611444565b600060096000016001836113329190614b74565b8154811061134357611342614ba8565b5b906000526020600020016040518060400160405290816000820160009054906101000a900463ffffffff1663ffffffff1663ffffffff1681526020016000820160049054906101000a90047bffffffffffffffffffffffffffffffffffffffffffffffffffffffff167bffffffffffffffffffffffffffffffffffffffffffffffffffffffff167bffffffffffffffffffffffffffffffffffffffffffffffffffffffff1681525050905083816000015163ffffffff161161142b5780602001517bffffffffffffffffffffffffffffffffffffffffffffffffffffffff1692505050611444565b61143f8460096127c990919063ffffffff16565b925050505b919050565b6114516109f8565b73ffffffffffffffffffffffffffffffffffffffff1661146f61222d565b73ffffffffffffffffffffffffffffffffffffffff16146114c5576040517f08c379a00000000000000000000000000000000000000000000000000000000081526004016114bc90614990565b60405180910390fd5b3073ffffffffffffffffffffffffffffffffffffffff166114e46109f8565b73ffffffffffffffffffffffffffffffffffffffff1614611534576000611509612235565b6040516115179291906148c9565b604051809103902090505b8061152d6002612242565b0361152257505b61153d816128b8565b50565b60008061154b61222d565b905061159d86828787878080601f016020809104026020016040519081016040528093929190818152602001838380828437600081840152601f19601f82011690508083019250505050505050612737565b915050949350505050565b60006115b2611915565b6115cf6115bd61222d565b6001436115ca9190614b74565b611cc4565b1015611610576040517f08c379a000000000000000000000000000000000000000000000000000000000815260040161160790614c49565b60405180910390fd5b60006116258686868680519060200120611b30565b9050845186511461166b576040517f08c379a000000000000000000000000000000000000000000000000000000000815260040161166290614cdb565b60405180910390fd5b83518651146116af576040517f08c379a00000000000000000000000000000000000000000000000000000000081526004016116a690614cdb565b60405180910390fd5b60008651116116f3576040517f08c379a00000000000000000000000000000000000000000000000000000000081526004016116ea90614d47565b60405180910390fd5b6000600160008381526020019081526020016000209050611753816000016040518060200160405290816000820160009054906101000a900467ffffffffffffffff1667ffffffffffffffff1667ffffffffffffffff16815250506128fd565b611792576040517f08c379a000000000000000000000000000000000000000000000000000000000815260040161178990614dd9565b60405180910390fd5b60006117a461179f610fd5565b612917565b6117ad43612917565b6117b79190614e0d565b905060006117cb6117c6610b65565b612917565b826117d69190614e0d565b90506117ee828460000161296e90919063ffffffff16565b611804818460010161296e90919063ffffffff16565b7f7d84a6263ae0d98d3329bd7b46bb4e8d6f98cd35a7adb45c274c8b7fd5ebd5e08461182e61222d565b8b8b8d5167ffffffffffffffff81111561184b5761184a613988565b5b60405190808252806020026020018201604052801561187e57816020015b60608152602001906001900390816118695790505b508c88888e60405161189899989796959493929190615228565b60405180910390a183945050505050949350505050565b60006064905090565b60006118c584848461299d565b90509392505050565b6000806009600001805490501461190c576118e96009611efb565b7bffffffffffffffffffffffffffffffffffffffffffffffffffffffff16611910565b6008545b905090565b600061191f612a44565b905090565b600063bc197c8160e01b905095945050505050565b6000611996600160008481526020019081526020016000206001016040518060200160405290816000820160009054906101000a900467ffffffffffffffff1667ffffffffffffffff1667ffffffffffffffff168152505061271f565b67ffffffffffffffff169050919050565b6119af6109f8565b73ffffffffffffffffffffffffffffffffffffffff166119cd61222d565b73ffffffffffffffffffffffffffffffffffffffff1614611a23576040517f08c379a0000000000000000000000000000000000000000000000000000000008152600401611a1a90614990565b60405180910390fd5b3073ffffffffffffffffffffffffffffffffffffffff16611a426109f8565b73ffffffffffffffffffffffffffffffffffffffff1614611a92576000611a67612235565b604051611a759291906148c9565b604051809103902090505b80611a8b6002612242565b03611a8057505b6000808573ffffffffffffffffffffffffffffffffffffffff16858585604051611abd9291906148c9565b60006040518083038185875af1925050503d8060008114611afa576040519150601f19603f3d011682016040523d82523d6000602084013e611aff565b606091505b5091509150611b278282604051806060016040528060288152602001615e6360289139612a4e565b50505050505050565b600084848484604051602001611b4994939291906152d8565b6040516020818303038152906040528051906020012060001c9050949350505050565b60606040518060400160405280602081526020017f737570706f72743d627261766f2671756f72756d3d666f722c6162737461696e815250905090565b7f150214d74d59b7d1e90c73fc22ef3d991dd0a76b046543d4d80ab92d2a50328f81565b611bd56109f8565b73ffffffffffffffffffffffffffffffffffffffff16611bf361222d565b73ffffffffffffffffffffffffffffffffffffffff1614611c49576040517f08c379a0000000000000000000000000000000000000000000000000000000008152600401611c4090614990565b60405180910390fd5b3073ffffffffffffffffffffffffffffffffffffffff16611c686109f8565b73ffffffffffffffffffffffffffffffffffffffff1614611cb8576000611c8d612235565b604051611c9b9291906148c9565b604051809103902090505b80611cb16002612242565b03611ca657505b611cc181612a70565b50565b6000611cd88383611cd3612af8565b61299d565b905092915050565b611ce86109f8565b73ffffffffffffffffffffffffffffffffffffffff16611d0661222d565b73ffffffffffffffffffffffffffffffffffffffff1614611d5c576040517f08c379a0000000000000000000000000000000000000000000000000000000008152600401611d5390614990565b60405180910390fd5b3073ffffffffffffffffffffffffffffffffffffffff16611d7b6109f8565b73ffffffffffffffffffffffffffffffffffffffff1614611dcb576000611da0612235565b604051611dae9291906148c9565b604051809103902090505b80611dc46002612242565b03611db957505b611dd481612b0f565b50565b600063f23a6e6160e01b905095945050505050565b6000611df782612b54565b9050919050565b7f000000000000000000000000000000000000000000000000000000000000000081565b60007bffffffffffffffffffffffffffffffffffffffffffffffffffffffff8016821115611e85576040517f08c379a0000000000000000000000000000000000000000000000000000000008152600401611e7c906153a4565b60405180910390fd5b819050919050565b600080611eae84600001611ea043611f65565b611ea986611e22565b612c1c565b817bffffffffffffffffffffffffffffffffffffffffffffffffffffffff169150807bffffffffffffffffffffffffffffffffffffffffffffffffffffffff169050915091509250929050565b6000808260000180549050905060008114611f5a57611f2983600001600183611f249190614b74565b612fa2565b60000160049054906101000a90047bffffffffffffffffffffffffffffffffffffffffffffffffffffffff16611f5d565b60005b915050919050565b600063ffffffff8016821115611fb0576040517f08c379a0000000000000000000000000000000000000000000000000000000008152600401611fa790615436565b60405180910390fd5b819050919050565b60007f01ffc9a7000000000000000000000000000000000000000000000000000000007bffffffffffffffffffffffffffffffffffffffffffffffffffffffff1916827bffffffffffffffffffffffffffffffffffffffffffffffffffffffff1916149050919050565b6000600554905090565b600061203f612039612fb7565b836130d1565b9050919050565b600080600061205787878787613104565b91509150612064816131e6565b8192505050949350505050565b6000806001600088815260200190815260200160002090506001600781111561209d5761209c614167565b5b6120a68861106e565b60078111156120b8576120b7614167565b5b146120f8576040517f08c379a00000000000000000000000000000000000000000000000000000000081526004016120ef906154c8565b60405180910390fd5b600061215787612147846000016040518060200160405290816000820160009054906101000a900467ffffffffffffffff1667ffffffffffffffff1667ffffffffffffffff168152505061271f565b67ffffffffffffffff168661299d565b9050612166888888848861334c565b60008451036121c8578673ffffffffffffffffffffffffffffffffffffffff167fb8e138887d0aa13bab447e82de9d5c1777041ecd21ca36ba824ff1e6c07ddda4898884896040516121bb94939291906154e8565b60405180910390a261221f565b8673ffffffffffffffffffffffffffffffffffffffff167fe2babfbac5889a709b63bb7f598b324e08bc5a4fb9ec647fb3cbc9ec07eb8712898884898960405161221695949392919061557e565b60405180910390a25b809250505095945050505050565b600033905090565b3660008036915091509091565b600061224d82613550565b15612284576040517f3db2a12a00000000000000000000000000000000000000000000000000000000815260040160405180910390fd5b60008260000160009054906101000a9004600f0b905082600101600082600f0b600f0b815260200190815260200160002054915082600101600082600f0b600f0b815260200190815260200160002060009055600181018360000160006101000a8154816fffffffffffffffffffffffffffffffff0219169083600f0b6fffffffffffffffffffffffffffffffff16021790555050919050565b6123266118af565b811115612368576040517f08c379a000000000000000000000000000000000000000000000000000000000815260040161235f90615677565b60405180910390fd5b60006123726118ce565b90506000811415801561238d57506000600960000180549050145b1561247f5760096000016040518060400160405280600063ffffffff1681526020016123b884611e22565b7bffffffffffffffffffffffffffffffffffffffffffffffffffffffff168152509080600181540180825580915050600190039060005260206000200160009091909190915060008201518160000160006101000a81548163ffffffff021916908363ffffffff16021790555060208201518160000160046101000a8154817bffffffffffffffffffffffffffffffffffffffffffffffffffffffff02191690837bffffffffffffffffffffffffffffffffffffffffffffffffffffffff16021790555050505b612493826009611e8d90919063ffffffff16565b50507f0553476bf02ef2726e8ce5ced78d63e26e602e4a2257b1f559418e24b463399781836040516124c6929190615697565b60405180910390a15050565b3073ffffffffffffffffffffffffffffffffffffffff166124f16109f8565b73ffffffffffffffffffffffffffffffffffffffff16146125ae5760005b84518110156125ac573073ffffffffffffffffffffffffffffffffffffffff1685828151811061254257612541614ba8565b5b602002602001015173ffffffffffffffffffffffffffffffffffffffff160361259b5761259a83828151811061257b5761257a614ba8565b5b602002602001015180519060200120600261358590919063ffffffff16565b5b806125a5906156c0565b905061250f565b505b5050505050565b6000604051806060016040528060278152602001615e8b60279139905060005b85518110156126bb576000808783815181106125f4576125f3614ba8565b5b602002602001015173ffffffffffffffffffffffffffffffffffffffff1687848151811061262557612624614ba8565b5b60200260200101518785815181106126405761263f614ba8565b5b60200260200101516040516126559190615739565b60006040518083038185875af1925050503d8060008114612692576040519150601f19603f3d011682016040523d82523d6000602084013e612697565b606091505b50915091506126a7828286612a4e565b505050806126b4906156c0565b90506125d5565b50505050505050565b3073ffffffffffffffffffffffffffffffffffffffff166126e36109f8565b73ffffffffffffffffffffffffffffffffffffffff1614612718576127086002613550565b612717576127166002613601565b5b5b5050505050565b600081600001519050919050565b6000600454905090565b600061274d85858585612748612af8565b612071565b9050949350505050565b600080600760008481526020019081526020016000209050806002015481600101546127839190615750565b61279461278f85610f43565b611dec565b1115915050919050565b6000806007600084815260200190815260200160002090508060000154816001015411915050919050565b600043821061280d576040517f08c379a0000000000000000000000000000000000000000000000000000000008152600401612804906157d0565b60405180910390fd5b600061281883611f65565b905060008460000180549050905060006128388660000184600085613682565b90506000811461288c5761285b866000016001836128569190614b74565b612fa2565b60000160049054906101000a90047bffffffffffffffffffffffffffffffffffffffffffffffffffffffff1661288f565b60005b7bffffffffffffffffffffffffffffffffffffffffffffffffffffffff16935050505092915050565b7fc565b045403dc03c2eea82b81a0465edad9e2e7fc4d97e11421c209da93d7a93600454826040516128eb929190615697565b60405180910390a18060048190555050565b600080826000015167ffffffffffffffff16149050919050565b600067ffffffffffffffff8016821115612966576040517f08c379a000000000000000000000000000000000000000000000000000000000815260040161295d90615862565b60405180910390fd5b819050919050565b808260000160006101000a81548167ffffffffffffffff021916908367ffffffffffffffff1602179055505050565b60007f000000000000000000000000000000000000000000000000000000000000000073ffffffffffffffffffffffffffffffffffffffff16633a46b1a885856040518363ffffffff1660e01b81526004016129fa929190615882565b602060405180830381865afa158015612a17573d6000803e3d6000fd5b505050506040513d601f19601f82011682018060405250810190612a3b91906158c0565b90509392505050565b6000600654905090565b60608315612a5e57829050612a69565b612a6883836136f5565b5b9392505050565b60008111612ab3576040517f08c379a0000000000000000000000000000000000000000000000000000000008152600401612aaa9061595f565b60405180910390fd5b7f7e3f7f0708a84de9203036abaa450dccc85ad5ff52f78c170f3edb55cf5e882860055482604051612ae6929190615697565b60405180910390a18060058190555050565b606060405180602001604052806000815250905090565b7fccb45da8d5717e6c4544694297c4ba5cf151d455c9bb0ed4fc7a38411bc0546160065482604051612b42929190615697565b60405180910390a18060068190555050565b6000612b5e6118af565b612b67836112fd565b7f000000000000000000000000000000000000000000000000000000000000000073ffffffffffffffffffffffffffffffffffffffff16638e539e8c856040518263ffffffff1660e01b8152600401612bc0919061388d565b602060405180830381865afa158015612bdd573d6000803e3d6000fd5b505050506040513d601f19601f82011682018060405250810190612c0191906158c0565b612c0b919061597f565b612c1591906159f0565b9050919050565b6000806000858054905090506000811115612eb2576000612c4987600184612c449190614b74565b612fa2565b6040518060400160405290816000820160009054906101000a900463ffffffff1663ffffffff1663ffffffff1681526020016000820160049054906101000a90047bffffffffffffffffffffffffffffffffffffffffffffffffffffffff167bffffffffffffffffffffffffffffffffffffffffffffffffffffffff167bffffffffffffffffffffffffffffffffffffffffffffffffffffffff168152505090508563ffffffff16816000015163ffffffff161115612d3d576040517f08c379a0000000000000000000000000000000000000000000000000000000008152600401612d3490615a6d565b60405180910390fd5b8563ffffffff16816000015163ffffffff1603612dc15784612d6b88600185612d669190614b74565b612fa2565b60000160046101000a8154817bffffffffffffffffffffffffffffffffffffffffffffffffffffffff02191690837bffffffffffffffffffffffffffffffffffffffffffffffffffffffff160217905550612ea1565b8660405180604001604052808863ffffffff168152602001877bffffffffffffffffffffffffffffffffffffffffffffffffffffffff168152509080600181540180825580915050600190039060005260206000200160009091909190915060008201518160000160006101000a81548163ffffffff021916908363ffffffff16021790555060208201518160000160046101000a8154817bffffffffffffffffffffffffffffffffffffffffffffffffffffffff02191690837bffffffffffffffffffffffffffffffffffffffffffffffffffffffff16021790555050505b806020015185935093505050612f9a565b8560405180604001604052808763ffffffff168152602001867bffffffffffffffffffffffffffffffffffffffffffffffffffffffff168152509080600181540180825580915050600190039060005260206000200160009091909190915060008201518160000160006101000a81548163ffffffff021916908363ffffffff16021790555060208201518160000160046101000a8154817bffffffffffffffffffffffffffffffffffffffffffffffffffffffff02191690837bffffffffffffffffffffffffffffffffffffffffffffffffffffffff160217905550505060008492509250505b935093915050565b60008260005281602060002001905092915050565b60007f000000000000000000000000000000000000000000000000000000000000000073ffffffffffffffffffffffffffffffffffffffff163073ffffffffffffffffffffffffffffffffffffffff1614801561303357507f000000000000000000000000000000000000000000000000000000000000000046145b15613060577f000000000000000000000000000000000000000000000000000000000000000090506130ce565b6130cb7f00000000000000000000000000000000000000000000000000000000000000007f00000000000000000000000000000000000000000000000000000000000000007f0000000000000000000000000000000000000000000000000000000000000000613745565b90505b90565b600082826040516020016130e6929190615b05565b60405160208183030381529060405280519060200120905092915050565b6000807f7fffffffffffffffffffffffffffffff5d576e7357a4501ddfe92f46681b20a08360001c111561313f5760006003915091506131dd565b6000600187878787604051600081526020016040526040516131649493929190615b3c565b6020604051602081039080840390855afa158015613186573d6000803e3d6000fd5b505050602060405103519050600073ffffffffffffffffffffffffffffffffffffffff168173ffffffffffffffffffffffffffffffffffffffff16036131d4576000600192509250506131dd565b80600092509250505b94509492505050565b600060048111156131fa576131f9614167565b5b81600481111561320d5761320c614167565b5b0315613349576001600481111561322757613226614167565b5b81600481111561323a57613239614167565b5b0361327a576040517f08c379a000000000000000000000000000000000000000000000000000000000815260040161327190615bcd565b60405180910390fd5b6002600481111561328e5761328d614167565b5b8160048111156132a1576132a0614167565b5b036132e1576040517f08c379a00000000000000000000000000000000000000000000000000000000081526004016132d890615c39565b60405180910390fd5b600360048111156132f5576132f4614167565b5b81600481111561330857613307614167565b5b03613348576040517f08c379a000000000000000000000000000000000000000000000000000000000815260040161333f90615ccb565b60405180910390fd5b5b50565b60006007600087815260200190815260200160002090508060030160008673ffffffffffffffffffffffffffffffffffffffff1673ffffffffffffffffffffffffffffffffffffffff16815260200190815260200160002060009054906101000a900460ff16156133f2576040517f08c379a00000000000000000000000000000000000000000000000000000000081526004016133e990615d5d565b60405180910390fd5b60018160030160008773ffffffffffffffffffffffffffffffffffffffff1673ffffffffffffffffffffffffffffffffffffffff16815260200190815260200160002060006101000a81548160ff021916908315150217905550600060028111156134605761345f614167565b5b60ff168460ff160361348c57828160000160008282546134809190615750565b92505081905550613548565b600160028111156134a05761349f614167565b5b60ff168460ff16036134cc57828160010160008282546134c09190615750565b92505081905550613547565b6002808111156134df576134de614167565b5b60ff168460ff160361350b57828160020160008282546134ff9190615750565b92505081905550613546565b6040517f08c379a000000000000000000000000000000000000000000000000000000000815260040161353d90615def565b60405180910390fd5b5b5b505050505050565b60008160000160009054906101000a9004600f0b600f0b8260000160109054906101000a9004600f0b600f0b13159050919050565b60008260000160109054906101000a9004600f0b90508183600101600083600f0b600f0b815260200190815260200160002081905550600181018360000160106101000a8154816fffffffffffffffffffffffffffffffff0219169083600f0b6fffffffffffffffffffffffffffffffff160217905550505050565b60008160000160006101000a8154816fffffffffffffffffffffffffffffffff0219169083600f0b6fffffffffffffffffffffffffffffffff16021790555060008160000160106101000a8154816fffffffffffffffffffffffffffffffff0219169083600f0b6fffffffffffffffffffffffffffffffff16021790555050565b60005b818310156136ea576000613699848461377f565b90508463ffffffff166136ac8783612fa2565b60000160009054906101000a900463ffffffff1663ffffffff1611156136d4578092506136e4565b6001816136e19190615750565b93505b50613685565b819050949350505050565b6000825111156137085781518083602001fd5b806040517f08c379a000000000000000000000000000000000000000000000000000000000815260040161373c9190613c73565b60405180910390fd5b60008383834630604051602001613760959493929190615e0f565b6040516020818303038152906040528051906020012090509392505050565b6000600282841861379091906159f0565b82841661379d9190615750565b905092915050565b6000604051905090565b600080fd5b600080fd5b60007fffffffff0000000000000000000000000000000000000000000000000000000082169050919050565b6137ee816137b9565b81146137f957600080fd5b50565b60008135905061380b816137e5565b92915050565b600060208284031215613827576138266137af565b5b6000613835848285016137fc565b91505092915050565b60008115159050919050565b6138538161383e565b82525050565b600060208201905061386e600083018461384a565b92915050565b6000819050919050565b61388781613874565b82525050565b60006020820190506138a2600083018461387e565b92915050565b6138b181613874565b81146138bc57600080fd5b50565b6000813590506138ce816138a8565b92915050565b600060ff82169050919050565b6138ea816138d4565b81146138f557600080fd5b50565b600081359050613907816138e1565b92915050565b600080fd5b600080fd5b600080fd5b60008083601f8401126139325761393161390d565b5b8235905067ffffffffffffffff81111561394f5761394e613912565b5b60208301915083600182028301111561396b5761396a613917565b5b9250929050565b600080fd5b6000601f19601f8301169050919050565b7f4e487b7100000000000000000000000000000000000000000000000000000000600052604160045260246000fd5b6139c082613977565b810181811067ffffffffffffffff821117156139df576139de613988565b5b80604052505050565b60006139f26137a5565b90506139fe82826139b7565b919050565b600067ffffffffffffffff821115613a1e57613a1d613988565b5b613a2782613977565b9050602081019050919050565b82818337600083830152505050565b6000613a56613a5184613a03565b6139e8565b905082815260208101848484011115613a7257613a71613972565b5b613a7d848285613a34565b509392505050565b600082601f830112613a9a57613a9961390d565b5b8135613aaa848260208601613a43565b91505092915050565b6000819050919050565b613ac681613ab3565b8114613ad157600080fd5b50565b600081359050613ae381613abd565b92915050565b60008060008060008060008060e0898b031215613b0957613b086137af565b5b6000613b178b828c016138bf565b9850506020613b288b828c016138f8565b975050604089013567ffffffffffffffff811115613b4957613b486137b4565b5b613b558b828c0161391c565b9650965050606089013567ffffffffffffffff811115613b7857613b776137b4565b5b613b848b828c01613a85565b9450506080613b958b828c016138f8565b93505060a0613ba68b828c01613ad4565b92505060c0613bb78b828c01613ad4565b9150509295985092959890939650565b600060208284031215613bdd57613bdc6137af565b5b6000613beb848285016138bf565b91505092915050565b600081519050919050565b600082825260208201905092915050565b60005b83811015613c2e578082015181840152602081019050613c13565b60008484015250505050565b6000613c4582613bf4565b613c4f8185613bff565b9350613c5f818560208601613c10565b613c6881613977565b840191505092915050565b60006020820190508181036000830152613c8d8184613c3a565b905092915050565b600073ffffffffffffffffffffffffffffffffffffffff82169050919050565b6000613cc082613c95565b9050919050565b613cd081613cb5565b8114613cdb57600080fd5b50565b600081359050613ced81613cc7565b92915050565b60008060008060808587031215613d0d57613d0c6137af565b5b6000613d1b87828801613cde565b9450506020613d2c87828801613cde565b9350506040613d3d878288016138bf565b925050606085013567ffffffffffffffff811115613d5e57613d5d6137b4565b5b613d6a87828801613a85565b91505092959194509250565b613d7f816137b9565b82525050565b6000602082019050613d9a6000830184613d76565b92915050565b600067ffffffffffffffff821115613dbb57613dba613988565b5b602082029050602081019050919050565b6000613ddf613dda84613da0565b6139e8565b90508083825260208201905060208402830185811115613e0257613e01613917565b5b835b81811015613e2b5780613e178882613cde565b845260208401935050602081019050613e04565b5050509392505050565b600082601f830112613e4a57613e4961390d565b5b8135613e5a848260208601613dcc565b91505092915050565b600067ffffffffffffffff821115613e7e57613e7d613988565b5b602082029050602081019050919050565b6000613ea2613e9d84613e63565b6139e8565b90508083825260208201905060208402830185811115613ec557613ec4613917565b5b835b81811015613eee5780613eda88826138bf565b845260208401935050602081019050613ec7565b5050509392505050565b600082601f830112613f0d57613f0c61390d565b5b8135613f1d848260208601613e8f565b91505092915050565b600067ffffffffffffffff821115613f4157613f40613988565b5b602082029050602081019050919050565b6000613f65613f6084613f26565b6139e8565b90508083825260208201905060208402830185811115613f8857613f87613917565b5b835b81811015613fcf57803567ffffffffffffffff811115613fad57613fac61390d565b5b808601613fba8982613a85565b85526020850194505050602081019050613f8a565b5050509392505050565b600082601f830112613fee57613fed61390d565b5b8135613ffe848260208601613f52565b91505092915050565b60008060008060808587031215614021576140206137af565b5b600085013567ffffffffffffffff81111561403f5761403e6137b4565b5b61404b87828801613e35565b945050602085013567ffffffffffffffff81111561406c5761406b6137b4565b5b61407887828801613ef8565b935050604085013567ffffffffffffffff811115614099576140986137b4565b5b6140a587828801613fd9565b92505060606140b687828801613ad4565b91505092959194509250565b6140cb81613ab3565b82525050565b60006020820190506140e660008301846140c2565b92915050565b600080600080600060a08688031215614108576141076137af565b5b6000614116888289016138bf565b9550506020614127888289016138f8565b9450506040614138888289016138f8565b935050606061414988828901613ad4565b925050608061415a88828901613ad4565b9150509295509295909350565b7f4e487b7100000000000000000000000000000000000000000000000000000000600052602160045260246000fd5b600881106141a7576141a6614167565b5b50565b60008190506141b882614196565b919050565b60006141c8826141aa565b9050919050565b6141d8816141bd565b82525050565b60006020820190506141f360008301846141cf565b92915050565b600080604083850312156142105761420f6137af565b5b600061421e858286016138bf565b925050602061422f85828601613cde565b9150509250929050565b600060608201905061424e600083018661387e565b61425b602083018561387e565b614268604083018461387e565b949350505050565b60008060408385031215614287576142866137af565b5b6000614295858286016138bf565b92505060206142a6858286016138f8565b9150509250929050565b6000806000806000608086880312156142cc576142cb6137af565b5b60006142da888289016138bf565b95505060206142eb888289016138f8565b945050604086013567ffffffffffffffff81111561430c5761430b6137b4565b5b6143188882890161391c565b9350935050606086013567ffffffffffffffff81111561433b5761433a6137b4565b5b61434788828901613a85565b9150509295509295909350565b6000806000806060858703121561436e5761436d6137af565b5b600061437c878288016138bf565b945050602061438d878288016138f8565b935050604085013567ffffffffffffffff8111156143ae576143ad6137b4565b5b6143ba8782880161391c565b925092505092959194509250565b600067ffffffffffffffff8211156143e3576143e2613988565b5b6143ec82613977565b9050602081019050919050565b600061440c614407846143c8565b6139e8565b90508281526020810184848401111561442857614427613972565b5b614433848285613a34565b509392505050565b600082601f8301126144505761444f61390d565b5b81356144608482602086016143f9565b91505092915050565b60008060008060808587031215614483576144826137af565b5b600085013567ffffffffffffffff8111156144a1576144a06137b4565b5b6144ad87828801613e35565b945050602085013567ffffffffffffffff8111156144ce576144cd6137b4565b5b6144da87828801613ef8565b935050604085013567ffffffffffffffff8111156144fb576144fa6137b4565b5b61450787828801613fd9565b925050606085013567ffffffffffffffff811115614528576145276137b4565b5b6145348782880161443b565b91505092959194509250565b600080600060608486031215614559576145586137af565b5b600061456786828701613cde565b9350506020614578868287016138bf565b925050604084013567ffffffffffffffff811115614599576145986137b4565b5b6145a586828701613a85565b9150509250925092565b600080600080600060a086880312156145cb576145ca6137af565b5b60006145d988828901613cde565b95505060206145ea88828901613cde565b945050604086013567ffffffffffffffff81111561460b5761460a6137b4565b5b61461788828901613ef8565b935050606086013567ffffffffffffffff811115614638576146376137b4565b5b61464488828901613ef8565b925050608086013567ffffffffffffffff811115614665576146646137b4565b5b61467188828901613a85565b9150509295509295909350565b60008083601f8401126146945761469361390d565b5b8235905067ffffffffffffffff8111156146b1576146b0613912565b5b6020830191508360018202830111156146cd576146cc613917565b5b9250929050565b600080600080606085870312156146ee576146ed6137af565b5b60006146fc87828801613cde565b945050602061470d878288016138bf565b935050604085013567ffffffffffffffff81111561472e5761472d6137b4565b5b61473a8782880161467e565b925092505092959194509250565b6000806040838503121561475f5761475e6137af565b5b600061476d85828601613cde565b925050602061477e858286016138bf565b9150509250929050565b600080600080600060a086880312156147a4576147a36137af565b5b60006147b288828901613cde565b95505060206147c388828901613cde565b94505060406147d4888289016138bf565b93505060606147e5888289016138bf565b925050608086013567ffffffffffffffff811115614806576148056137b4565b5b61481288828901613a85565b9150509295509295909350565b6000819050919050565b600061484461483f61483a84613c95565b61481f565b613c95565b9050919050565b600061485682614829565b9050919050565b60006148688261484b565b9050919050565b6148788161485d565b82525050565b6000602082019050614893600083018461486f565b92915050565b600081905092915050565b60006148b08385614899565b93506148bd838584613a34565b82840190509392505050565b60006148d68284866148a4565b91508190509392505050565b6148eb816138d4565b82525050565b600060a08201905061490660008301886140c2565b614913602083018761387e565b61492060408301866148e2565b61492d60608301856140c2565b61493a60808301846140c2565b9695505050505050565b7f476f7665726e6f723a206f6e6c79476f7665726e616e63650000000000000000600082015250565b600061497a601883613bff565b915061498582614944565b602082019050919050565b600060208201905081810360008301526149a98161496d565b9050919050565b7f4e487b7100000000000000000000000000000000000000000000000000000000600052602260045260246000fd5b600060028204905060018216806149f757607f821691505b602082108103614a0a57614a096149b0565b5b50919050565b7f476f7665726e6f723a2070726f706f73616c206e6f742073756363657373667560008201527f6c00000000000000000000000000000000000000000000000000000000000000602082015250565b6000614a6c602183613bff565b9150614a7782614a10565b604082019050919050565b60006020820190508181036000830152614a9b81614a5f565b9050919050565b6000606082019050614ab760008301866140c2565b614ac4602083018561387e565b614ad160408301846148e2565b949350505050565b7f476f7665726e6f723a20756e6b6e6f776e2070726f706f73616c206964000000600082015250565b6000614b0f601d83613bff565b9150614b1a82614ad9565b602082019050919050565b60006020820190508181036000830152614b3e81614b02565b9050919050565b7f4e487b7100000000000000000000000000000000000000000000000000000000600052601160045260246000fd5b6000614b7f82613874565b9150614b8a83613874565b9250828203905081811115614ba257614ba1614b45565b5b92915050565b7f4e487b7100000000000000000000000000000000000000000000000000000000600052603260045260246000fd5b7f476f7665726e6f723a2070726f706f73657220766f7465732062656c6f77207060008201527f726f706f73616c207468726573686f6c64000000000000000000000000000000602082015250565b6000614c33603183613bff565b9150614c3e82614bd7565b604082019050919050565b60006020820190508181036000830152614c6281614c26565b9050919050565b7f476f7665726e6f723a20696e76616c69642070726f706f73616c206c656e677460008201527f6800000000000000000000000000000000000000000000000000000000000000602082015250565b6000614cc5602183613bff565b9150614cd082614c69565b604082019050919050565b60006020820190508181036000830152614cf481614cb8565b9050919050565b7f476f7665726e6f723a20656d7074792070726f706f73616c0000000000000000600082015250565b6000614d31601883613bff565b9150614d3c82614cfb565b602082019050919050565b60006020820190508181036000830152614d6081614d24565b9050919050565b7f476f7665726e6f723a2070726f706f73616c20616c726561647920657869737460008201527f7300000000000000000000000000000000000000000000000000000000000000602082015250565b6000614dc3602183613bff565b9150614dce82614d67565b604082019050919050565b60006020820190508181036000830152614df281614db6565b9050919050565b600067ffffffffffffffff82169050919050565b6000614e1882614df9565b9150614e2383614df9565b9250828201905067ffffffffffffffff811115614e4357614e42614b45565b5b92915050565b614e5281613cb5565b82525050565b600081519050919050565b600082825260208201905092915050565b6000819050602082019050919050565b614e8d81613cb5565b82525050565b6000614e9f8383614e84565b60208301905092915050565b6000602082019050919050565b6000614ec382614e58565b614ecd8185614e63565b9350614ed883614e74565b8060005b83811015614f09578151614ef08882614e93565b9750614efb83614eab565b925050600181019050614edc565b5085935050505092915050565b600081519050919050565b600082825260208201905092915050565b6000819050602082019050919050565b614f4b81613874565b82525050565b6000614f5d8383614f42565b60208301905092915050565b6000602082019050919050565b6000614f8182614f16565b614f8b8185614f21565b9350614f9683614f32565b8060005b83811015614fc7578151614fae8882614f51565b9750614fb983614f69565b925050600181019050614f9a565b5085935050505092915050565b600081519050919050565b600082825260208201905092915050565b6000819050602082019050919050565b600082825260208201905092915050565b600061501c82613bf4565b6150268185615000565b9350615036818560208601613c10565b61503f81613977565b840191505092915050565b60006150568383615011565b905092915050565b6000602082019050919050565b600061507682614fd4565b6150808185614fdf565b93508360208202850161509285614ff0565b8060005b858110156150ce57848403895281516150af858261504a565b94506150ba8361505e565b925060208a01995050600181019050615096565b50829750879550505050505092915050565b600081519050919050565b600082825260208201905092915050565b6000819050602082019050919050565b600081519050919050565b600082825260208201905092915050565b60006151338261510c565b61513d8185615117565b935061514d818560208601613c10565b61515681613977565b840191505092915050565b600061516d8383615128565b905092915050565b6000602082019050919050565b600061518d826150e0565b61519781856150eb565b9350836020820285016151a9856150fc565b8060005b858110156151e557848403895281516151c68582615161565b94506151d183615175565b925060208a019950506001810190506151ad565b50829750879550505050505092915050565b600061521261520d61520884614df9565b61481f565b613874565b9050919050565b615222816151f7565b82525050565b60006101208201905061523e600083018c61387e565b61524b602083018b614e49565b818103604083015261525d818a614eb8565b905081810360608301526152718189614f76565b90508181036080830152615285818861506b565b905081810360a08301526152998187615182565b90506152a860c0830186615219565b6152b560e0830185615219565b8181036101008301526152c88184613c3a565b90509a9950505050505050505050565b600060808201905081810360008301526152f28187614eb8565b905081810360208301526153068186614f76565b9050818103604083015261531a8185615182565b905061532960608301846140c2565b95945050505050565b7f53616665436173743a2076616c756520646f65736e27742066697420696e203260008201527f3234206269747300000000000000000000000000000000000000000000000000602082015250565b600061538e602783613bff565b915061539982615332565b604082019050919050565b600060208201905081810360008301526153bd81615381565b9050919050565b7f53616665436173743a2076616c756520646f65736e27742066697420696e203360008201527f3220626974730000000000000000000000000000000000000000000000000000602082015250565b6000615420602683613bff565b915061542b826153c4565b604082019050919050565b6000602082019050818103600083015261544f81615413565b9050919050565b7f476f7665726e6f723a20766f7465206e6f742063757272656e746c792061637460008201527f6976650000000000000000000000000000000000000000000000000000000000602082015250565b60006154b2602383613bff565b91506154bd82615456565b604082019050919050565b600060208201905081810360008301526154e1816154a5565b9050919050565b60006080820190506154fd600083018761387e565b61550a60208301866148e2565b615517604083018561387e565b81810360608301526155298184613c3a565b905095945050505050565b600082825260208201905092915050565b60006155508261510c565b61555a8185615534565b935061556a818560208601613c10565b61557381613977565b840191505092915050565b600060a082019050615593600083018861387e565b6155a060208301876148e2565b6155ad604083018661387e565b81810360608301526155bf8185613c3a565b905081810360808301526155d38184615545565b90509695505050505050565b7f476f7665726e6f72566f74657351756f72756d4672616374696f6e3a2071756f60008201527f72756d4e756d657261746f72206f7665722071756f72756d44656e6f6d696e6160208201527f746f720000000000000000000000000000000000000000000000000000000000604082015250565b6000615661604383613bff565b915061566c826155df565b606082019050919050565b6000602082019050818103600083015261569081615654565b9050919050565b60006040820190506156ac600083018561387e565b6156b9602083018461387e565b9392505050565b60006156cb82613874565b91507fffffffffffffffffffffffffffffffffffffffffffffffffffffffffffffffff82036156fd576156fc614b45565b5b600182019050919050565b60006157138261510c565b61571d8185614899565b935061572d818560208601613c10565b80840191505092915050565b60006157458284615708565b915081905092915050565b600061575b82613874565b915061576683613874565b925082820190508082111561577e5761577d614b45565b5b92915050565b7f436865636b706f696e74733a20626c6f636b206e6f7420796574206d696e6564600082015250565b60006157ba602083613bff565b91506157c582615784565b602082019050919050565b600060208201905081810360008301526157e9816157ad565b9050919050565b7f53616665436173743a2076616c756520646f65736e27742066697420696e203660008201527f3420626974730000000000000000000000000000000000000000000000000000602082015250565b600061584c602683613bff565b9150615857826157f0565b604082019050919050565b6000602082019050818103600083015261587b8161583f565b9050919050565b60006040820190506158976000830185614e49565b6158a4602083018461387e565b9392505050565b6000815190506158ba816138a8565b92915050565b6000602082840312156158d6576158d56137af565b5b60006158e4848285016158ab565b91505092915050565b7f476f7665726e6f7253657474696e67733a20766f74696e6720706572696f642060008201527f746f6f206c6f7700000000000000000000000000000000000000000000000000602082015250565b6000615949602783613bff565b9150615954826158ed565b604082019050919050565b600060208201905081810360008301526159788161593c565b9050919050565b600061598a82613874565b915061599583613874565b92508282026159a381613874565b915082820484148315176159ba576159b9614b45565b5b5092915050565b7f4e487b7100000000000000000000000000000000000000000000000000000000600052601260045260246000fd5b60006159fb82613874565b9150615a0683613874565b925082615a1657615a156159c1565b5b828204905092915050565b7f436865636b706f696e743a20696e76616c6964206b6579000000000000000000600082015250565b6000615a57601783613bff565b9150615a6282615a21565b602082019050919050565b60006020820190508181036000830152615a8681615a4a565b9050919050565b600081905092915050565b7f1901000000000000000000000000000000000000000000000000000000000000600082015250565b6000615ace600283615a8d565b9150615ad982615a98565b600282019050919050565b6000819050919050565b615aff615afa82613ab3565b615ae4565b82525050565b6000615b1082615ac1565b9150615b1c8285615aee565b602082019150615b2c8284615aee565b6020820191508190509392505050565b6000608082019050615b5160008301876140c2565b615b5e60208301866148e2565b615b6b60408301856140c2565b615b7860608301846140c2565b95945050505050565b7f45434453413a20696e76616c6964207369676e61747572650000000000000000600082015250565b6000615bb7601883613bff565b9150615bc282615b81565b602082019050919050565b60006020820190508181036000830152615be681615baa565b9050919050565b7f45434453413a20696e76616c6964207369676e6174757265206c656e67746800600082015250565b6000615c23601f83613bff565b9150615c2e82615bed565b602082019050919050565b60006020820190508181036000830152615c5281615c16565b9050919050565b7f45434453413a20696e76616c6964207369676e6174757265202773272076616c60008201527f7565000000000000000000000000000000000000000000000000000000000000602082015250565b6000615cb5602283613bff565b9150615cc082615c59565b604082019050919050565b60006020820190508181036000830152615ce481615ca8565b9050919050565b7f476f7665726e6f72566f74696e6753696d706c653a20766f746520616c72656160008201527f6479206361737400000000000000000000000000000000000000000000000000602082015250565b6000615d47602783613bff565b9150615d5282615ceb565b604082019050919050565b60006020820190508181036000830152615d7681615d3a565b9050919050565b7f476f7665726e6f72566f74696e6753696d706c653a20696e76616c696420766160008201527f6c756520666f7220656e756d20566f7465547970650000000000000000000000602082015250565b6000615dd9603583613bff565b9150615de482615d7d565b604082019050919050565b60006020820190508181036000830152615e0881615dcc565b9050919050565b600060a082019050615e2460008301886140c2565b615e3160208301876140c2565b615e3e60408301866140c2565b615e4b606083018561387e565b615e586080830184614e49565b969550505050505056fe476f7665726e6f723a2072656c617920726576657274656420776974686f7574206d657373616765476f7665726e6f723a2063616c6c20726576657274656420776974686f7574206d657373616765a2646970667358221220e8c09aec94e7928148da6a5a8c82e1ddfa51389db9d96694c7189b98b82eea5e64736f6c63430008110033",
  "immutableReferences": {
    "2131": [
      {
        "length": 32,
        "start": 7680
      },
      {
        "length": 32,
        "start": 10657
      },
      {
        "length": 32,
        "start": 11113
      }
    ],
    "6692": [
      {
        "length": 32,
        "start": 12346
      }
    ],
    "6694": [
      {
        "length": 32,
        "start": 12305
      }
    ],
    "6696": [
      {
        "length": 32,
        "start": 12219
      }
    ],
    "6698": [
      {
        "length": 32,
        "start": 12422
      }
    ],
    "6700": [
      {
        "length": 32,
        "start": 12455
      }
    ],
    "6702": [
      {
        "length": 32,
        "start": 12389
      }
    ]
  },
  "source": "// SPDX-License-Identifier: MIT\r\npragma solidity ^0.8.9;\r\n\r\nimport \"@openzeppelin/contracts/governance/Governor.sol\";\r\nimport \"@openzeppelin/contracts/governance/extensions/GovernorSettings.sol\";\r\nimport \"@openzeppelin/contracts/governance/extensions/GovernorCountingSimple.sol\";\r\nimport \"@openzeppelin/contracts/governance/extensions/GovernorVotes.sol\";\r\nimport \"@openzeppelin/contracts/governance/extensions/GovernorVotesQuorumFraction.sol\";\r\n\r\ncontract CnGovernor is Governor, GovernorSettings, GovernorCountingSimple, GovernorVotes, GovernorVotesQuorumFraction {\r\n    constructor(IVotes _token)\r\n        Governor(\"CnGovernor\")\r\n        GovernorSettings(1 /* 1 block */, 50400 /* 1 week */, 0)\r\n        GovernorVotes(_token)\r\n        GovernorVotesQuorumFraction(4)\r\n    {}\r\n\r\n    // The following functions are overrides required by Solidity.\r\n\r\n    function votingDelay()\r\n        public\r\n        view\r\n        override(IGovernor, GovernorSettings)\r\n        returns (uint256)\r\n    {\r\n        return super.votingDelay();\r\n    }\r\n\r\n    function votingPeriod()\r\n        public\r\n        view\r\n        override(IGovernor, GovernorSettings)\r\n        returns (uint256)\r\n    {\r\n        return super.votingPeriod();\r\n    }\r\n\r\n    function quorum(uint256 blockNumber)\r\n        public\r\n        view\r\n        override(IGovernor, GovernorVotesQuorumFraction)\r\n        returns (uint256)\r\n    {\r\n        return super.quorum(blockNumber);\r\n    }\r\n\r\n    function proposalThreshold()\r\n        public\r\n        view\r\n        override(Governor, GovernorSettings)\r\n        returns (uint256)\r\n    {\r\n        return super.proposalThreshold();\r\n    }\r\n}",
  "sourcePath": "C:\\Users\\sgarg\\OneDrive\\Desktop\\DAO\\contracts\\CnGovernor.sol",
  "compiler": {
    "name": "solc",
    "version": "0.8.17+commit.8df45f5f.Emscripten.clang"
  },
  "schemaVersion": "3.4.11",
  "updatedAt": "2023-01-09T15:29:36.426Z",
  "networkType": "ethereum",
  "devdoc": {
    "errors": {
      "Empty()": [
        {
          "details": "An operation (e.g. {front}) couldn't be completed due to the queue being empty."
        }
      ]
    },
    "kind": "dev",
    "methods": {
      "COUNTING_MODE()": {
        "details": "See {IGovernor-COUNTING_MODE}."
      },
      "castVote(uint256,uint8)": {
        "details": "See {IGovernor-castVote}."
      },
      "castVoteBySig(uint256,uint8,uint8,bytes32,bytes32)": {
        "details": "See {IGovernor-castVoteBySig}."
      },
      "castVoteWithReason(uint256,uint8,string)": {
        "details": "See {IGovernor-castVoteWithReason}."
      },
      "castVoteWithReasonAndParams(uint256,uint8,string,bytes)": {
        "details": "See {IGovernor-castVoteWithReasonAndParams}."
      },
      "castVoteWithReasonAndParamsBySig(uint256,uint8,string,bytes,uint8,bytes32,bytes32)": {
        "details": "See {IGovernor-castVoteWithReasonAndParamsBySig}."
      },
      "execute(address[],uint256[],bytes[],bytes32)": {
        "details": "See {IGovernor-execute}."
      },
      "getVotes(address,uint256)": {
        "details": "See {IGovernor-getVotes}."
      },
      "getVotesWithParams(address,uint256,bytes)": {
        "details": "See {IGovernor-getVotesWithParams}."
      },
      "hasVoted(uint256,address)": {
        "details": "See {IGovernor-hasVoted}."
      },
      "hashProposal(address[],uint256[],bytes[],bytes32)": {
        "details": "See {IGovernor-hashProposal}. The proposal id is produced by hashing the ABI encoded `targets` array, the `values` array, the `calldatas` array and the descriptionHash (bytes32 which itself is the keccak256 hash of the description string). This proposal id can be produced from the proposal data which is part of the {ProposalCreated} event. It can even be computed in advance, before the proposal is submitted. Note that the chainId and the governor address are not part of the proposal id computation. Consequently, the same proposal (with same operation and same description) will have the same id if submitted on multiple governors across multiple networks. This also means that in order to execute the same operation twice (on the same governor) the proposer will have to change the description in order to avoid proposal id conflicts."
      },
      "name()": {
        "details": "See {IGovernor-name}."
      },
      "onERC1155BatchReceived(address,address,uint256[],uint256[],bytes)": {
        "details": "See {IERC1155Receiver-onERC1155BatchReceived}."
      },
      "onERC1155Received(address,address,uint256,uint256,bytes)": {
        "details": "See {IERC1155Receiver-onERC1155Received}."
      },
      "onERC721Received(address,address,uint256,bytes)": {
        "details": "See {IERC721Receiver-onERC721Received}."
      },
      "proposalDeadline(uint256)": {
        "details": "See {IGovernor-proposalDeadline}."
      },
      "proposalSnapshot(uint256)": {
        "details": "See {IGovernor-proposalSnapshot}."
      },
      "proposalVotes(uint256)": {
        "details": "Accessor to the internal vote counts."
      },
      "propose(address[],uint256[],bytes[],string)": {
        "details": "See {IGovernor-propose}."
      },
      "quorumDenominator()": {
        "details": "Returns the quorum denominator. Defaults to 100, but may be overridden."
      },
      "quorumNumerator()": {
        "details": "Returns the current quorum numerator. See {quorumDenominator}."
      },
      "quorumNumerator(uint256)": {
        "details": "Returns the quorum numerator at a specific block number. See {quorumDenominator}."
      },
      "relay(address,uint256,bytes)": {
        "details": "Relays a transaction or function call to an arbitrary target. In cases where the governance executor is some contract other than the governor itself, like when using a timelock, this function can be invoked in a governance proposal to recover tokens or Ether that was sent to the governor contract by mistake. Note that if the executor is simply the governor itself, use of `relay` is redundant."
      },
      "setProposalThreshold(uint256)": {
        "details": "Update the proposal threshold. This operation can only be performed through a governance proposal. Emits a {ProposalThresholdSet} event."
      },
      "setVotingDelay(uint256)": {
        "details": "Update the voting delay. This operation can only be performed through a governance proposal. Emits a {VotingDelaySet} event."
      },
      "setVotingPeriod(uint256)": {
        "details": "Update the voting period. This operation can only be performed through a governance proposal. Emits a {VotingPeriodSet} event."
      },
      "state(uint256)": {
        "details": "See {IGovernor-state}."
      },
      "supportsInterface(bytes4)": {
        "details": "See {IERC165-supportsInterface}."
      },
      "updateQuorumNumerator(uint256)": {
        "details": "Changes the quorum numerator. Emits a {QuorumNumeratorUpdated} event. Requirements: - Must be called through a governance proposal. - New numerator must be smaller or equal to the denominator."
      },
      "version()": {
        "details": "See {IGovernor-version}."
      }
    },
    "version": 1
  },
  "userdoc": {
    "kind": "user",
    "methods": {},
    "version": 1
  }
}